{
  "contractName": "BuyAndSend",
  "abi": [
    {
      "inputs": [
        {
          "name": "_proxy",
          "type": "address"
        }
      ],
      "payable": false,
      "stateMutability": "nonpayable",
      "type": "constructor"
    },
    {
      "payable": true,
      "stateMutability": "payable",
      "type": "fallback"
    },
    {
      "constant": false,
      "inputs": [
        {
          "name": "_calldata",
          "type": "bytes"
        },
        {
          "name": "receiver",
          "type": "address"
        },
        {
          "name": "toToken",
          "type": "address"
        }
      ],
      "name": "buyAndSend",
      "outputs": [],
      "payable": true,
      "stateMutability": "payable",
      "type": "function"
    }
  ],
  "bytecode": "0x608060405234801561001057600080fd5b506040516020806106908339810180604052602081101561003057600080fd5b5051600080546001600160a01b039092166001600160a01b031990921691909117905561062e806100626000396000f3fe60806040526004361061001e5760003560e01c8063d3fd3ff414610020575b005b61001e6004803603606081101561003657600080fd5b81019060208101813564010000000081111561005157600080fd5b82018360208201111561006357600080fd5b8035906020019184600183028401116401000000008311171561008557600080fd5b91908080601f0160208091040260200160405190810160405280939291908181526020018383808284376000920191909152509295505073ffffffffffffffffffffffffffffffffffffffff83358116945060209093013590921691506100e99050565b6100f383346101f0565b604080517f70a0823100000000000000000000000000000000000000000000000000000000815230600482015290516101b591849173ffffffffffffffffffffffffffffffffffffffff8516916370a08231916024808301926020929190829003018186803b15801561016557600080fd5b505afa158015610179573d6000803e3d6000fd5b505050506040513d602081101561018f57600080fd5b505173ffffffffffffffffffffffffffffffffffffffff8416919063ffffffff6102d616565b3031156101eb576040513390303180156108fc02916000818181858888f193505050501580156101e9573d6000803e3d6000fd5b505b505050565b60008054604051845160609273ffffffffffffffffffffffffffffffffffffffff16918591879190819060208401908083835b6020831061026057805182527fffffffffffffffffffffffffffffffffffffffffffffffffffffffffffffffe09092019160209182019101610223565b6001836020036101000a03801982511681845116808217855250505050505090500191505060006040518083038185875af1925050503d80600081146102c2576040519150601f19603f3d011682016040523d82523d6000602084013e6102c7565b606091505b5091509150816101e957600080fd5b6040805173ffffffffffffffffffffffffffffffffffffffff8416602482015260448082018490528251808303909101815260649091019091526020810180517bffffffffffffffffffffffffffffffffffffffffffffffffffffffff167fa9059cbb000000000000000000000000000000000000000000000000000000001790526101eb90849061037d8273ffffffffffffffffffffffffffffffffffffffff1661059c565b6103e857604080517f08c379a000000000000000000000000000000000000000000000000000000000815260206004820152601f60248201527f5361666545524332303a2063616c6c20746f206e6f6e2d636f6e747261637400604482015290519081900360640190fd5b600060608373ffffffffffffffffffffffffffffffffffffffff16836040518082805190602001908083835b6020831061045157805182527fffffffffffffffffffffffffffffffffffffffffffffffffffffffffffffffe09092019160209182019101610414565b6001836020036101000a0380198251168184511680821785525050505050509050019150506000604051808303816000865af19150503d80600081146104b3576040519150601f19603f3d011682016040523d82523d6000602084013e6104b8565b606091505b50915091508161052957604080517f08c379a000000000000000000000000000000000000000000000000000000000815260206004820181905260248201527f5361666545524332303a206c6f772d6c6576656c2063616c6c206661696c6564604482015290519081900360640190fd5b8051156101e95780806020019051602081101561054557600080fd5b50516101e9576040517f08c379a000000000000000000000000000000000000000000000000000000000815260040180806020018281038252602a8152602001806105d9602a913960400191505060405180910390fd5b6000813f7fc5d2460186f7233c927e7db2dcc703c0e500b653ca82273b7bfad8045d85a47081158015906105d05750808214155b94935050505056fe5361666545524332303a204552433230206f7065726174696f6e20646964206e6f742073756363656564a165627a7a72305820263acc765cf4ee2752e49f7587894187619890df6cc5cae86e0ae92e78ed2cbc0029",
  "source": "pragma solidity ^0.5.0;\n\nimport \"./IERC20.sol\";\nimport \"./SafeERC20.sol\";\n\ncontract BuyAndSend {\n  using SafeERC20 for IERC20;\n  address payable proxy;\n\n  constructor(address payable _proxy) public {\n    proxy = _proxy;\n  } \n\n  function buyAndSend(bytes memory _calldata, address receiver, IERC20 toToken) payable public {\n    callProxy(_calldata, msg.value);\n    toToken.safeTransfer(receiver, toToken.balanceOf(address(this)));\n    if (address(this).balance > 0) {\n      msg.sender.transfer(address(this).balance);\n    }\n  }\n\n  function callProxy(bytes memory _calldata, uint256 _value) internal {\n    (bool success, bytes memory data) = proxy.call.value(_value)(_calldata);\n    require(success);\n  }\n\n  function () external payable {}\n}\n",
  "sourcePath": "/Users/nathanieloden/Documents/progrimz/ConcourseOpen/DEXAG-Contract-Liquidity/contracts/BuyAndSend.sol",
  "compiler": {
    "name": "solc",
    "version": "0.5.8+commit.23d335f2.Emscripten.clang"
  },
  "schemaVersion": "3.0.11",
  "updatedAt": "2019-09-13T20:53:32.022Z",
  "devdoc": {
    "methods": {}
  },
  "userdoc": {
    "methods": {}
  }
}